:020000040800F2
:10400000FFFF01207D670208B3E30008B5E3000865
:1040100005E5000849E500088DE5000800000000FE
:10402000000000000000000000000000416F0008D8
:10403000D1E5000800000000D56F0008AFE30008DC
:10404000C1670208C1670208C1670208C1670208A8
:10405000C1670208C167020847E2000857E200088A
:1040600067E2000877E2000885E200081101010814
:10407000C167020835010108C5BF000859BF000823
:10408000D3E50008410C0108C1670208C1670208B6
:10409000C1670208C1670208C16702089DE2000803
:1040A000C1670208C1670208C1670208C167020848
:1040B000C1670208C1670208C1670208050101085B
:1040C000F9000108C1670208C1670208C167020858
:1040D000C1670208C1670208910C0108F10B0108D1
:1040E00013E30008C1670208C1670208C16702083C
:1040F000C1670208690E0108C1670208C1670208AA
:10410000C1670208C1670208C1670208C1670208E7
:10411000C1670208C1670208C16702083D4901087A
:104120006D0C0208C1670208C1670208C167020876
:10413000C1670208C1670208C1670208C1670208B7
:10414000C1670208C1670208C1670208898E0008BA
:10415000010C0208C1670208BD0A0108B90A01087A
:10416000290101081D010108C1670208C167020891
:10417000C1670208C1670208C1670208C167020877
:08418000C1670208C1670208D3
:1041880081F0004102E000BF83F0004330B54FEA00
:1041980041044FEA430594EA050F08BF90EA020F6D
:1041A8001FBF54EA000C55EA020C7FEA645C7FEA00
:1041B800655C00F0E2804FEA5454D4EB5555B8BF23
:1041C8006D420CDD2C4480EA020281EA030382EA94
:1041D800000083EA010180EA020281EA0303362D26
:1041E80088BF30BD11F0004F4FEA01314FF4801CF9
:1041F8004CEA113102D0404261EB410113F0004F0B
:104208004FEA03334CEA133302D0524263EB4303C1
:1042180094EA050F00F0A780A4F10104D5F1200E5F
:104228000DDB02FA0EFC22FA05F2801841F10001BA
:1042380003FA0EF2801843FA05F359410EE0A5F18E
:1042480020050EF1200E012A03FA0EFC28BF4CF0BF
:10425800020C43FA05F3C01851EBE37101F0004575
:1042680007D54FF0000EDCF1000C7EEB00006EEB82
:104278000101B1F5801F1BD3B1F5001F0CD349080C
:104288005FEA30004FEA3C0C04F101044FEA445263
:1042980012F5800F80F09A80BCF1004F08BF5FEAEA
:1042A800500C50F1000041EB045141EA050130BDCA
:1042B8005FEA4C0C404141EB010111F4801FA4F16D
:1042C8000104E9D191F0000F04BF01460020B1FAC2
:1042D80081F308BF2033A3F10B03B3F120020CDAFA
:1042E8000C3208DD02F1140CC2F10C0201FA0CF0D8
:1042F80021FA02F10CE002F11402D8BFC2F1200C3D
:1043080001FA02F120FA0CFCDCBF41EA0C019040F2
:10431800E41AA2BF01EB0451294330BD6FEA04043B
:104328001F3C1CDA0C340EDC04F11404C4F1200226
:1043380020FA04F001FA02F340EA030021FA04F338
:1043480045EA030130BDC4F10C04C4F1200220FA8F
:1043580002F001FA04F340EA0300294630BD21FACD
:1043680004F0294630BD94F0000F83F4801306BF93
:1043780081F480110134013D4EE77FEA645C18BF87
:104388007FEA655C29D094EA050F08BF90EA020F1E
:1043980005D054EA000C04BF1946104630BD91EA16
:1043A800030F1EBF0021002030BD5FEA545C05D119
:1043B8004000494128BF41F0004130BD14F5800458
:1043C8003CBF01F5801130BD01F0004545F0FE41CC
:1043D80041F470014FF0000030BD7FEA645C1ABF01
:1043E800194610467FEA655C1CBF0B46024650EA38
:1043F800013406BF52EA033591EA030F41F4002164
:1044080030BD00BF90F0000F04BF0021704730B5E9
:104418004FF4806404F132044FF000054FF00001BE
:1044280050E700BF90F0000F04BF0021704730B57F
:104438004FF4806404F1320410F0004548BF404254
:104448004FF000013EE700BF42004FEAE2014FEAA9
:1044580031014FEA02701FBF12F07F4393F07F4F84
:1044680081F06051704732F07F4208BF704793F087
:104478007F4F04BF41F40021704730B54FF460749A
:1044880001F0004521F000411CE700BF50EA01029D
:1044980008BF704730B54FF000050AE050EA010246
:1044A80008BF704730B511F0004502D5404261EBB6
:1044B80041014FF4806404F132045FEA915C3FF4F7
:1044C800D8AE4FF003025FEADC0C18BF03325FEA94
:1044D800DC0C18BF033202EBDC02C2F1200300FA45
:1044E80003FC20FA02F001FA03FE40EA0E0021FA6A
:1044F80002F11444BDE600BF70B54FF0FF0C4CF458
:10450800E06C1CEA11541DBF1CEA135594EA0C0F09
:1045180095EA0C0F00F0DEF82C4481EA030621EA44
:104528004C5123EA4C5350EA013518BF52EA03357F
:1045380041F4801143F4801338D0A0FB02CE4FF031
:104548000005E1FB02E506F00042E0FB03E54FF061
:104558000006E1FB03569CF0000F18BF4EF0010E59
:10456800A4F1FF04B6F5007F64F5407404D25FEA55
:104578004E0E6D4146EB060642EAC62141EA555108
:104588004FEAC52040EA5E504FEACE2EB4F1FD0C4A
:1045980088BFBCF5E06F1ED8BEF1004F08BF5FEAC8
:1045A800500E50F1000041EB045170BD06F000467A
:1045B80046EA010140EA020081EA0301B4EB5C0427
:1045C800C2BFD4EB0C0541EA045170BD41F480111F
:1045D8004FF0000E013C00F3AB8014F1360FDEBF44
:1045E800002001F0004170BDC4F10004203C35DA20
:1045F8000C341BDC04F11404C4F1200500FA05F3A3
:1046080020FA04F001FA05F240EA020001F0004243
:1046180021F0004110EBD37021FA04F642EB0601B9
:104628005EEA430E08BF20EAD37070BDC4F10C04E3
:10463800C4F1200500FA04F320FA05F001FA04F2A7
:1046480040EA020001F0004110EBD37041F1000193
:104658005EEA430E08BF20EAD37070BDC4F120059E
:1046680000FA05F24EEA020E20FA04F301FA05F206
:1046780043EA020321FA04F001F0004121FA04F2AE
:1046880020EA020000EBD3705EEA430E08BF20EA7E
:10469800D37070BD94F0000F0FD101F000464000B8
:1046A80041EB010111F4801F08BF013CF7D041EA3A
:1046B800060195F0000F18BF704703F0004652003E
:1046C80043EB030313F4801F08BF013DF7D043EA0F
:1046D8000603704794EA0C0F0CEA135518BF95EAC5
:1046E8000C0F0CD050EA410618BF52EA4306D1D14C
:1046F80081EA030101F000414FF0000070BD50EA6B
:10470800410606BF1046194652EA430619D094EAF4
:104718000C0F02D150EA013613D195EA0C0F05D1DE
:1047280052EA03361CBF104619460AD181EA030132
:1047380001F0004141F0FE4141F470014FF00000EA
:1047480070BD41F0FE4141F4780170BD70B54FF085
:10475800FF0C4CF4E06C1CEA11541DBF1CEA135505
:1047680094EA0C0F95EA0C0F00F0A7F8A4EB0504E7
:1047780081EA030E52EA03354FEA013100F08880DE
:104788004FEA03334FF0805545EA131343EA1263A7
:104798004FEA022245EA111545EA10654FEA00265C
:1047A8000EF000419D4208BF964244F1FD0404F515
:1047B800407402D25B084FEA3202B61A65EB030571
:1047C8005B084FEA32024FF480104FF4002CB6EB2E
:1047D800020E75EB030E22BFB61A754640EA0C00AE
:1047E8005B084FEA3202B6EB020E75EB030E22BFEE
:1047F800B61A754640EA5C005B084FEA3202B6EB2F
:10480800020E75EB030E22BFB61A754640EA9C00ED
:104818005B084FEA3202B6EB020E75EB030E22BFBD
:10482800B61A754640EADC0055EA060E18D04FEA7B
:10483800051545EA16754FEA06164FEAC30343EA1B
:1048480052734FEAC2025FEA1C1CC0D111F4801FE8
:104858000BD141EA00014FF000004FF0004CB6E7E1
:1048680011F4801F04BF01430020B4F1FD0C88BF80
:10487800BCF5E06F3FF6AFAEB5EB030C04BFB6EB8B
:10488800020C5FEA500C50F1000041EB045170BD7E
:104898000EF0004E4EEA113114EB5C04C2BFD4EBAB
:1048A8000C0541EA045170BD41F480114FF0000E2F
:1048B800013C90E645EA060E8DE60CEA135594EAAB
:1048C8000C0F08BF95EA0C0F3FF43BAF94EA0C0FAE
:1048D8000AD150EA01347FF434AF95EA0C0F7FF423
:1048E80025AF104619462CE795EA0C0F06D152EA77
:1048F80003353FF4FDAE1046194622E750EA41065B
:1049080018BF52EA43067FF4C5AE50EA41047FF46B
:104918000DAF52EA43057FF4EBAE12E74FF0FF3CD0
:1049280006E000BF4FF0010C02E000BF4FF0010CA1
:104938004DF804CD4FEA410C7FEA6C5C4FEA430C1A
:1049480018BF7FEA6C5C1BD001B050EA410C0CBF69
:1049580052EA430C91EA030F02BF90EA020F0020CB
:10496800704710F1000F91EA030F58BF994208BF32
:1049780090422CBFD8176FEAE37040F001007047EF
:104988004FEA410C7FEA6C5C02D150EA013C07D146
:104998004FEA430C7FEA6C5CD6D152EA033CD3D091
:1049A8005DF8040B704700BF8446104662468C468B
:1049B8001946634600E000BF01B5FFF7B7FF0028BE
:1049C80048BF10F1000F01BD4DF808EDFFF7F4FFE7
:1049D8000CBF012000205DF808FB00BF4DF808ED72
:1049E800FFF7EAFF34BF012000205DF808FB00BF95
:1049F8004DF808EDFFF7E0FF94BF012000205DF8B7
:104A080008FB00BF4DF808EDFFF7CEFF94BF01206B
:104A180000205DF808FB00BF4DF808EDFFF7C4FF64
:104A280034BF012000205DF808FB00BF4FEA410CAD
:104A38007FEA6C5C02D150EA013C0AD14FEA430C90
:104A48007FEA6C5C02D152EA033C02D14FF00000CD
:104A580070474FF0010070474FEA4102B2F1E0435E
:104A680024BFB3F5001CDCF1FE5C0DD901F0004C4D
:104A78004FEAC0024CEA5070B2F1004F40EB83009D
:104A880008BF20F00100704711F0804F21D113F1C9
:104A98003872BCBF01F00040704741F480114FEA02
:104AA8005252C2F11802C2F1200C10FA0CF320FA8B
:104AB80002F018BF40F001004FEAC1234FEAD323A8
:104AC80003FA0CFC40EA0C0023FA02F34FEA430312
:104AD800CCE77FEA625307D150EA01331EBF4FF09B
:104AE800FE4040F44000704701F0004040F0FE40B6
:104AF80040F40000704700BF80F0004002E000BFB3
:104B080081F0004142001FBF5FEA410392EA030FB0
:104B18007FEA226C7FEA236C6AD04FEA1262D2EBFA
:104B28001363C1BFD218414048404140B8BF5B42FF
:104B3800192B88BF704710F0004F40F4000020F098
:104B48007F4018BF404211F0004F41F4000121F0AE
:104B58007F4118BF494292EA030F3FD0A2F10102F8
:104B680041FA03FC10EB0C00C3F1200301FA03F136
:104B780000F0004302D5494260EB4000B0F5000F59
:104B880013D3B0F1807F06D340084FEA310102F118
:104B98000102FE2A51D2B1F1004F40EBC25008BFCA
:104BA80020F0010040EA03007047490040EB000094
:104BB80010F4000FA2F10102EDD1B0FA80FCACF1C3
:104BC800080CB2EB0C0200FA0CF0AABF00EBC250C2
:104BD80052421843BCBFD0401843704792F0000FB0
:104BE80081F4000106BF80F400000132013BB5E703
:104BF8004FEA41037FEA226C18BF7FEA236C21D079
:104C080092EA030F04D092F0000F08BF08467047DD
:104C180090EA010F1CBF0020704712F07F4F04D1AB
:104C2800400028BF40F00040704712F100723CBFBE
:104C380000F50000704700F0004343F0FE4040F4E8
:104C4800000070477FEA226216BF08467FEA2363A6
:104C58000146420206BF5FEA412390EA010F40F491
:104C6800800070474FF0000304E000BF10F00043DD
:104C780048BF40425FEA000C08BF704743F09643C4
:104C880001464FF000001CE050EA010208BF7047DF
:104C98004FF000030AE000BF50EA010208BF704766
:104CA80011F0004302D5404261EB41015FEA010C7B
:104CB80002BF84460146002043F0B64308BFA3F173
:104CC8008053A3F50003BCFA8CF2083AA3EBC25355
:104CD80010DB01FA02FC634400FA02FCC2F1200274
:104CE800BCF1004F20FA02F243EB020008BF20F0AB
:104CF8000100704702F1200201FA02FCC2F1200211
:104D080050EA4C0021FA02F243EB020008BF20EA05
:104D1800DC70704753B94AB9002908BF00281CBF86
:104D28004FF0FF314FF0FF3000F0E2B9ADF1080C61
:104D38006DE904CE00F076F8DDF804E0DDE9022341
:104D480004B0704707EE900AF5EEC07AF1EE10FA5B
:104D580001D400F021B808B580F0004000F01CF83C
:104D6800404261EB410108BD38B5002200230446EA
:104D78000D46FFF733FE28B920462946BDE83840DE
:104D880000F02EB8204605F1004100F029F8404215
:104D980061EB410138BD00BFD0B5FFF755FB0022DC
:104DA8000D4B06460F46FFF7A7FB00F0A3F9044694
:104DB800FFF728FB0022094BFFF79EFB02460B4634
:104DC80030463946FFF7E0F900F094F9002223460F
:104DD80010431946D0BD00BF0000F03D0000F0416F
:104DE800D0B500220D4B06460F46FFF785FB00F0B5
:104DF80081F90446FFF706FB0022094BFFF77CFB0D
:104E080002460B4630463946FFF7BEF900F072F904
:104E18000022234610431946D0BD00BF0000F03DD4
:104E28000000F0412DE9F047089E04468846002B13
:104E38004BD18A42154667D9B2FA82F24AB1C2F119
:104E4800200701FA02F320FA07F7954047EA03081A
:104E580094404FEA154E230CB8FBFEF71FFA85FC69
:104E68000EFB178843EA084307FB0CF1994209D95E
:104E7800EB1807F1FF3080F01B81994240F218814E
:104E8800023F2B445B1AA4B2B3FBFEF00EFB1033B7
:104E980044EA034400FB0CFCA44509D92C1900F191
:104EA800FF3380F00781A44540F2048102382C4486
:104EB80040EA0740A4EB0C0400271EB1D4400023AD
:104EC800C6E900433946BDE8F0878B4209D9002E70
:104ED80000F0EB800027C6E9000138463946BDE8F6
:104EE800F087B3FA83F7002F47D18B4202D382426F
:104EF80000F2FA80841A61EB030301209846002E21
:104F0800E0D0C6E90048DDE702B9FFDEB2FA82F276
:104F1800002A40F08F80491B4FEA154E1FFA85F88A
:104F28000127B1FBFEFC230C0EFB1C1143EA0143D5
:104F380008FB0CF1994207D9EB180CF1FF3002D2AB
:104F4800994200F2CD808446591AA3B2B1FBFEF013
:104F58000EFB101443EA044408FB00F8A04507D9E7
:104F68002C1900F1FF3302D2A04500F2B680184692
:104F7800A4EB080440EA0C409FE7C7F1200CBB40B3
:104F880022FA0CFE4EEA030E01FA07F420FA0CF599
:104F980021FA0CF34FEA1E482543B3FBF8F92C0C11
:104FA80008FB19331FFA8EFA44EA034309FB0AF493
:104FB8009C4202FA07F200FA07F10BD91EEB030331
:104FC80009F1FF3080F087809C4240F28480A9F18B
:104FD800020973441B1BADB2B3FBF8F008FB103396
:104FE80045EA034400FB0AFAA24508D91EEB04046B
:104FF80000F1FF336BD2A24569D90238744440EA04
:105008000940A0FB0289A4EB0A044C45C2464B4662
:1050180054D351D0002E69D0B1EB0A0564EB0304D8
:1050280004FA0CFCFD40FC404CEA0505C6E90054B6
:10503800002747E7C2F1200320FA03F7954001FA59
:1050480002F021FA03F34FEA154E3843010CB3FB83
:10505800FEF71FFA85F80EFB173341EA034107FBF9
:1050680008F38B4204FA02F407D9691807F1FF3CE8
:105078002FD28B422DD9023F2944CB1A81B2B3FBE0
:10508800FEF00EFB103341EA034100FB08F38B42AC
:1050980007D9691800F1FF3C17D28B4215D902389D
:1050A8002944C91A40EA07473BE73746304609E72B
:1050B8000746E7E61846FBE64145ABD2B8EB020ADD
:1050C80069EB0E0201381346A4E76046E9E7184683
:1050D80095E76746D1E781467CE702382C4447E7E5
:1050E800ACF1020C2B442FE7384608E73746E9E6CF
:1050F800704700BF4A0011D212F5001211D20DD527
:105108006FF47873B3EB62520ED44FEAC12343F0C5
:10511800004343EA505323FA02F070474FF000006F
:10512800704750EA013002D14FF0FF3070474FF01E
:105138000000704710F8012B11F8013B012A28BF25
:105148009A42F7D0D01A7047034613F8012B002A69
:10515800FBD1181A0138704700F108034FF0FF32ED
:105168004360C0E902230361002303607047002302
:105178000361704743684B609A688A609A68516017
:105188009960086103680133036070470A68531C1B
:1051980030B50AD103695A684A6091608B605960DA
:1051A800086103680133036030BD00F108035C68DF
:1051B80025689542EFD82346F9E7D0E9012103692C
:1051C8009160D0E9011251605A68824204BF826836
:1051D8005A600022026118680138186070470000A0
:1051E800064A13681968064B19B94FF0FF321A605E
:1051F80070471268D268D2685268F8E78C0C0020B1
:10520800540D002010B5044628B940F266520949E9
:10521800094820F01FFC6269084B9A4207D1A06A2E
:10522800074B984203D0B0FA80F0400910BD002027
:10523800FCE700BFE1A50208FAA50208740D0020EA
:105248005C0D002010B50E4B1A6850600D4A1268AC
:105258008242044607D90C4A10681968BDE8104014
:105268000431FFF793BF094A106819680431FFF742
:105278008DFF074B1A68A24288BF1C6010BD00BF93
:10528800880C00209C0D0020900C00208C0C002025
:10529800540D00202DE9F0430D68002D3DD04B68DA
:1052A8005C684C6001F10807BC4204BFCB684B60E6
:1052B8004B680025D3F80CE04FF002080346486815
:1052C80040684860874204BFC86848604868C46846
:1052D8001C6004F134005860206C98601A73E06A0E
:1052E8001861032A03D1A06A08B183F80C80A06C66
:1052F8005861606D9861D4F830C06646A6EB0C0022
:1053080016F8019BB9F1A50FF8D08008A645988337
:1053180005F1010503F12003D1D12846BDE8F0834A
:105328002DE9F84F0A9F0C9E884615469B468246F3
:1053380028B940F22D226849684820F08BFB052FD8
:1053480005D940F22E226449654820F083FB36B91E
:10535800A80001F0C7FC0646002800F0B0806020D5
:1053680001F0C0FC0446002800F0A680AD002A46E3
:105378000663A521304624F048FF236B043D1D44F5
:1053880008F1FF3225F0070904F1340108F1090892
:1053980012F8010F01F8010B107808B19045F7D108
:1053A800052F4FF00005B84604F1040628BF4FF05A
:1053B8000508304684F83D50C4F82C80C4E91285AD
:1053C800FFF7D5FE04F11800FFF7D1FEC8F1060279
:1053D800A261A56524616462C4E9145584F85C502F
:1053E8005A465146484601F095FD0B9B206003B193
:1053F8001C6001F0B1FD3B4B3B4D1A68DFF824817E
:1054080001321A602A68002A5CD12C601B68012BC3
:105418002AD13648DFF810A1DFF81091FFF79CFE7B
:105428003348FFF799FE3348FFF796FE3248FFF7F7
:1054380093FE3248FFF790FE3148FFF78DFE504645
:10544800FFF78AFE4846FFF787FE2E48FFF784FEDF
:105458002D48FFF781FE2D48FFF77EFE2C4BC3F841
:1054680000A02C4BC3F800902B4A2C4913680868FD
:1054780001331360E26A2364012404FA02F303434C
:105488000B601A4B142000FB02303146FFF772FE06
:1054980001F084FDD8F800305BB12B68DB6ABB42B1
:1054A80007D21F4B4FF080521A60BFF34F8FBFF3E4
:1054B8006F8F2046BDE8F88F304601F0B1FC4FF001
:1054C800FF34F6E7D8F80030002BCDD12B68DB6A23
:1054D800BB4298BF2C60C7E7E1A50208CBA602082B
:1054E800D6A60208100D0020880C0020940C00207D
:1054F800A80C0020BC0C0020D00C0020E40C0020DC
:10550800F80C00205C0D0020880D0020740D002090
:105518008C0C0020900C00201C0D0020240D002075
:1055280004ED00E0700D0020280D00203C0D002047
:1055380038B5044601F010FD0CB9244B1C68251D34
:105548002846FFF73AFE60B9E06A214B142141432F
:105558005B5833B91F4901220B68824023EA0203D2
:105568000B60A36A1BB104F11800FFF726FE294659
:105578001948FFF7FFFD194A136801331360184AE9
:1055880013680133136001F009FD164B1B68A3B1C2
:105598000E4B1B68A34211D1134B1B682BB140F271
:1055A8001E321249124820F055FA124B4FF0805221
:1055B8001A60BFF34F8FBFF36F8F38BD01F0CCFC7B
:1055C800FFF70EFEBDE8384001F0E8BC880C00206B
:1055D800940C0020240D0020880D0020200D0020B0
:1055E8001C0D0020700D0020180D0020E1A50208F8
:1055F8002BA6020804ED00E0F8B5044688BB4FF47A
:10560800B2621A491A48BDE8F84020F023BA01F0FE
:10561800A3FC2046FFF7F6FD012805461DD1271DEE
:105628003846FFF7CAFD134AE36A11689D400D43E7
:105638001560114A142000FB03203946FFF79AFD34
:105648003368E26ADB6A9A4207D30C4B4FF0805208
:105658001A60BFF34F8FBFF36F8FBDE8F84001F0BA
:105668009DBC074E33688342D1D1F8BDE1A502083D
:1056780051A60208240D0020940C002004ED00E03F
:10568800880C00201FB51A4B1A491B480024CDE985
:105698000043CDE9024423469622FFF741FE012844
:1056A8001AD101F043F9012816D14FF05F0383F3B3
:1056B8001188BFF36F8FBFF34F8F104B4FF0FF323E
:1056C8001A600F4B18600F4B1C600FF0C9F804B03C
:1056D800BDE8104001F0CEBC40B90B490B4840F280
:1056E800516204B0BDE8104020F0B4B904B010BD58
:1056F800500D002069A602088D5A0008540D00209C
:10570800700D00209C0D0020E1A502086EA602087D
:10571800024A136801331360704700BF180D002058
:10572800014B1868704700BF9C0D00202DE9F84F09
:105738003D4B3E4A196811603D4A1268002A6BD1F8
:105748001A6801321A601D68A5B93A4C23681B68AB
:105758002BB140F2AA723849384820F07BF9384B0F
:105768002268196821601A60364A13680133136089
:10577800FFF736FD344C354F2368AB424FF0000B32
:1057880011D93A68324BD16A14224A439A58022AEC
:1057980028BF4FF0010B2F4A1268002A0CBF584649
:1057A8000120BDE8F88FDFF88CA0DFF8B090DAF8B8
:1057B800002012681AB94FF0FF322260E1E7DAF8E8
:1057C8000020D268D66871688D4201D22160D8E77E
:1057D80006F104084046FFF7F0FCB16A19B106F17A
:1057E8001800FFF7EAFCF06AD9F80030012202FA43
:1057F80000F11943164BC9F800104FF0140C41463C
:105808000CFB0030FFF7B6FC3868F16AC26A9142B7
:1058180028BF4FF0010BCAE70F4A13680133136022
:105828004FF0000BB7E700BF9C0D0020080000E018
:10583800180D00208C0C0020E1A5020839A70208E9
:10584800900C0020580D0020540D0020880C0020DA
:10585800940C0020A00D0020140D0020240D002021
:105868002DE9F8432E4C23682BB940F28E622D495E
:105878002D4820F0EFF801F06FFB2368013B23600F
:1058880023682BB1002401F089FB2046BDE8F8838A
:10589800264B1B68002BF5D0254D264EDFF8A88037
:1058A8002B689BB9244C23681BB1244D012623681F
:1058B8006BBB224B1C68012CE4D1214B4FF080526A
:1058C8001A60BFF34F8FBFF36F8FDCE7EB68DC68BC
:1058D80004F1040904F11800FFF76FFC4846FFF7CC
:1058E8006CFCE26A3168012707FA02F314200B43C3
:1058F80000FB028049463360FFF73CFC114BE26A2B
:105908001B68DB6A9A42CBD30C4B1F60C6E7FFF7D4
:105918000DFF00B12E602368013B2360C7E700BF7D
:10592800180D0020E1A502089EA70208100D00200E
:105938005C0D0020240D0020140D0020A00D002077
:1059480004ED00E0880C0020940C002038B50C46CB
:10595800054628B940F23F322149224820F07AF81A
:105968002CB94FF450721E491F4820F073F81F4B92
:105978001B682BB140F2413219491D4820F06AF8E2
:10598800FFF7C6FE1B4B1A682B681C192CBF012198
:10599800002193422C600CD961B9FFF761FF38B937
:1059A800154B4FF080521A60BFF34F8FBFF36F8FC4
:1059B80038BD09B9A242F0D2104D28680430FFF76B
:1059C800FCFB40B92A680E49D06A0B680122824064
:1059D80023EA02030B602046FFF734FCDDE700BF33
:1059E800E1A5020800A6020813A60208180D002067
:1059F8002BA602089C0D002004ED00E0880C002076
:105A0800240D002038B5054640B9174B4FF0805299
:105A18001A60BFF34F8FBFF36F8F38BD134B1B68EE
:105A28002BB140F2A3321249124820F013F8FFF7C5
:105A38006FFE114B1C682C44104D28680430FFF78A
:105A4800BCFB40B92A680E49D06A0B680122824023
:105A580023EA02030B602046FFF7F4FBFFF700FF81
:105A68000028D2D0D9E700BF04ED00E0180D0020CF
:105A7800E1A502082BA602089C0D0020880C002036
:105A8800240D002008B5124E124C236813B912F0E9
:105A9800DBFCF9E7FFF73CFE3568FFF7E1FE002D78
:105AA800F3D001F059FAF368DD68281DFFF785FB8C
:105AB800094A1368013B13602368013B236001F026
:105AC8006DFA286B01F0ACF9284601F0A9F9DCE77A
:105AD800880D0020200D0020100D00202DE9F04138
:105AE80005461746FFF714FE1E4B1B688B4236D837
:105AF8000026DFF88480344608EB060105EB4410E5
:105B08000122FFF7C7FB143E16F1780F0444F3D1C6
:105B1800154B0222196805EB4410FFF7BBFB134B2A
:105B280004441968022205EB4410FFF7B3FB044450
:105B380004220F4905EB4410FFF7ACFB044405EBC6
:105B4800441003220B49FFF7A5FB044417B10EF0DC
:105B5800C9FE3860FFF784FE2046BDE8F0810024C6
:105B6800F8E700BF100D00208C0C0020900C0020DE
:105B7800880D0020740D0020F80C002038B50D4663
:105B8800044608B9044B1C6801F0E6F92565BDE830
:105B9800384001F003BA00BF880C002070B51E4BD6
:105BA8001A681E4B12B101221A6070BD1A600EF0FD
:105BB80099FE1B4A1B4E1468A04204D931684B6DEC
:105BC8001B1B03444B65184B10601C68B4FA84F423
:105BD800E4B2C4F11F041423144D6343EB582BB9EA
:105BE80040F6C802124913481FF034FF142202FB82
:105BF80004F3E91808334868406848602B44984221
:105C080004BF43684B6002FB04546368DB6833607D
:105C180033685A6B084BC7E7180D0020A00D002009
:105C28000C0D0020880C0020240D0020940C00206E
:105C3800E1A5020876A60208040000E0F8B50446CB
:105C4800284D01F089F904B92C68261D3046FFF764
:105C5800B4FA60B9E06A244B142141435B5833B964
:105C6800224901220B68824023EA02030B60A36ADF
:105C78001BB104F11800FFF7A0FA1D4F3146384652
:105C8800FFF778FA01F08AF92B68A342194B1B68D1
:105C98001DD18BB1184B1B682BB140F22E521749FE
:105CA80017481FF0D7FE174B4FF080521A60BFF30A
:105CB8004F8FBFF36F8FF8BD134A3968126891424E
:105CC80001D12B60F7E7BDE8F840FFF767BF002B6D
:105CD800F1D001F041F9FFF783FABDE8F84001F08F
:105CE8005DB900BF880C0020940C0020240D002012
:105CF800740D0020700D0020180D0020E1A5020889
:105D08002BA6020804ED00E0100D002070B50D462A
:105D1800064628B940F6DA02134914481FF09AFEDD
:105D2800134C216830461831FFF730FA20680430E8
:105D3800FFF743FA40B922680E49D06A0B6801227E
:105D4800824023EA02030B606B1C06D121680A48D3
:105D58000431BDE87040FFF70DBA084B18682844B5
:105D6800BDE87040FFF76EBAE1A5020845A6020833
:105D7800880C0020240D0020740D00209C0D0020AC
:105D8800F8B50D461646074628B940F65912144983
:105D980014481FF05FFE144C216838461831FFF78D
:105DA800E9F920680430FFF708FA40B922680F497A
:105DB800D06A0B680122824023EA02030B60012E9D
:105DC80006D121680A480431BDE8F840FFF7D2B986
:105DD800084B18682844BDE8F840FFF733BA00BFFD
:105DE800E1A5020845A60208880C0020240D002021
:105DF800740D00209C0D002038B5C368DC682CB9F0
:105E080040F6B412154916481FF024FE04F118058F
:105E18002846FFF7D2F9134B1B68E3B9251D28461E
:105E2800FFF7CBF91049E26A08680123934003435E
:105E38000B600E4B1420294600FB0230FFF79AF93D
:105E48000B4BE26A1B68DB6A9A4283BF094B01204D
:105E58001860002038BD29460748EFE7E1A5020889
:105E68008FA70208180D0020240D0020940C002094
:105E7800880C0020A00D00205C0D002010B5044601
:105E880028B940F61422054905481FF0E3FD054BE3
:105E98001B682360044B1B68636010BDE1A5020802
:105EA8005FA60208580D00209C0D002070B50D4615
:105EB800044628B940F61E22144915481FF0CAFDA9
:105EC8002DB940F61F22114912481FF0C3FD01F0F9
:105ED80043F8114B19682B685A1C10D00F4A1068E8
:105EE800D4E90062864201D091420DD2881A8342D9
:105EF8000AD95B1A13442B602046FFF7BFFF002422
:105F080001F04CF8204670BD0124F9E7E1A502082C
:105F18005FA60208BDA602089C0D0020580D0020AF
:105F2800014B01221A607047A00D0020054B1B6829
:105F380033B1054B1B68002B0CBF022000207047B3
:105F480001207047700D0020180D00202DE9F04148
:105F5800044600282ED01E4DC36A2A68D26A93428E
:105F680028D282691B4E002AA1BF2A68D26AC2F1D0
:105F7800060282611427426907FB03639A4216D11D
:105F880000F104084046FFF718F9134AA0B12B683E
:105F98001168D86AE062012383400B43136014231D
:105FA800414603FB0060BDE8F041FFF7E3B82B680A
:105FB800DB6AC362BDE8F081E06A4743F359002B0E
:105FC800E5D113680121814023EA01031360DEE76C
:105FD800880C0020940C0020240D0020F8B50446FD
:105FE80008B90020F8BD204B1B68834205D040F655
:105FF800A7521E491E481FF02DFDE36C2BB940F631
:10600800A9521A491B481FF025FDE36CE16AA26CEE
:10601800013B9142E364E4D0002BE2D1251D2846E0
:10602800FFF7CBF8144E154A50B9E76A14217943A3
:1060380073582BB913680120B84023EA0003136092
:10604800A36CE362C3F10601A1611168012404FA9B
:1060580003F008431060142000FB03602946FFF793
:1060680089F82046BEE700BF880C0020E1A5020899
:1060780064A702087AA70208940C0020240D0020C7
:10608800044B1A681AB11968CA6C0132CA641868D4
:10609800704700BF880C002038B51546026C0446CE
:1060A8005AB905680DB1002003E04068FFF796FF74
:1060B8006560A36B0133A36338BD65B9806824F0BC
:1060C80099F8A368226C13446268A3609342EAD3E8
:1060D8002368A360E7E7C06824F08CF8236CE268C3
:1060E80021685B421A448A42E2603EBF62689B189C
:1060F800E360022DD7D1A36B002BD4D0A36B013B57
:10610800A363D0E7034610B41A6C084662B1D96895
:106118005C681144A142D96024BF1968D960D96864
:106128005DF8044B24F066B85DF8044B704738B549
:10613800044600F011FF04F12405A36C002B12DCC7
:106148004FF0FF33A36400F029FF00F005FF04F1CE
:106158001005636C002B13DC4FF0FF336364BDE85C
:10616800384000F01BBF636A002BE9D02846FFF7D0
:1061780043FE08B1FFF7D4FEA36C013BA364DCE740
:106188002369002BE8D02846FFF736FE08B1FFF751
:10619800C7FE636C013B6364DBE7000038B50D465E
:1061A800044628B94FF4847219491A481FF052FC62
:1061B80000F0D2FED4E90F312268A2604B43D01818
:1061C8005B1A13446060E36000204FF0FF33A06364
:1061D8006364A3649DB923696BB104F11000FFF7F0
:1061E8000BFE012807D10C4B4FF080521A60BFF309
:1061F8004F8FBFF36F8F00F0D1FE012038BD04F13F
:106208001000FEF7A9FF04F12400FEF7A5FFF2E74E
:1062180020A8020839A8020804ED00E0F8B50D46E8
:106228001746064628B940F24312134913481FF08F
:1062380011FC7DB105FB06F00130543000F052FD31
:10624800044648B940F27F120B490D481FF002FC82
:106258002046F8BD2846F0E74DB92060C4E90F652F
:1062680001212046FFF79AFF84F85070F0E700F10B
:1062780054030360F2E700BF20A80208B3A702088E
:106288006EA602082DE9FF470F4601921E460446F6
:1062980028B940F26722574957481FF0DBFB3FB93E
:1062A800236C2BB14FF41A72524954481FF0D2FB99
:1062B800022E08D1E36B012B05D040F269224D492B
:1062C8004F481FF0C7FBFFF731FE38B9019B2BB1D0
:1062D8004FF41B7247494B481FF0BCFBDFF828916D
:1062E800DFF828814FF0000A00F036FEA26BE36B5E
:1062F8009A4201D3022E22D1E36C434A43F48073BD
:106308001360394632462046FFF7C6FE636A73B10A
:1063180004F12400FFF770FD01280AD13B4B4FF030
:1063280080521A60BFF34F8FBFF36F8F01E00028D0
:10633800F4D100F033FE012004B0BDE8F087019DE0
:1063480045B900F02BFEE36C2F4A43F40073136049
:106358000020F1E7BAF1000F02D102A8FFF78EFD85
:1063680000F01CFEFFF7D4F900F0F6FD636C013372
:1063780004BF00236364A36C013304BF0023A36438
:1063880000F00CFE01A902A8FFF790FD58BB00F031
:10639800E3FDA26BE36B9A4214D100F0FFFDE36CBE
:1063A80043F48063C9F80030019904F11000FFF745
:1063B800ADFC2046FFF7BBFEFFF752FA50B14FF095
:1063C800010A91E700F0EAFD2046FFF7B0FEFFF76B
:1063D80047FAF4E74FF08053C8F80030BFF34F8F07
:1063E800BFF36F8FEBE72046FFF7A1FEFFF738FA00
:1063F800A9E700BF20A8020839A8020841A8020896
:1064080091A80208D8A802080C0000E004ED00E0FA
:1064180070B50646542000F065FC0446D8B1002546
:106428000123C0E90F354FF0FF33856380F85060D2
:106438004364C0E900558364C0E902551030FEF793
:106448008BFE04F12400FEF787FE2B462A462946D8
:106458002046FFF717FF204670BD00002DE9F041E8
:10646800884616461D46044628B940F22442264965
:1064780026481FF0EFFAB8F1000F07D1236C2BB1B3
:1064880040F22542204922481FF0E4FA022D08D1A3
:10649800E36B012B05D040F226421B491D481FF033
:1064A800D9FA00F05DFEEFF311874FF05F0383F335
:1064B8001188BFF36F8FBFF34F8FA26BE36B9A42C4
:1064C80001D3022D1DD12A4641462046FFF7E4FD9F
:1064D800A36C013311D1636A0BB9012009E004F1FF
:1064E8002400FFF789FC0028F7D0002EF5D0012002
:1064F800306087F31188BDE8F081A36C0133A36491
:10650800EBE70020F5E700BF20A8020839A8020839
:1065180041A8020891A8020870B50D46044628B99A
:1065280040F2BF42214922481FF094FA236C2BB154
:1065380040F2C3421D491F481FF08CFA23683BB93B
:1065480063682BB14FF4996218491B481FF082FA0F
:1065580000F006FEEFF311864FF05F0383F3118816
:10656800BFF36F8FBFF34F8FA26BE36B9A421AD2C0
:10657800A36B0133A363A36C013310D1636A0BB916
:10658800012009E004F12400FFF736FC0028F7D0C9
:10659800002DF5D00120286086F3118870BDA36C0A
:1065A8000133A364ECE70020F6E700BF20A8020847
:1065B80039A802082EA9020847A902082DE9FF47B1
:1065C8000E4601929846044628B940F25B52554956
:1065D80055481FF03FFA3EB9236C2BB140F25C528C
:1065E800504952481FF036FAFFF7A0FC38B9019B12
:1065F8002BB140F25F524B494D481FF02BFADFF8A0
:1066080038914C4F4FF0000A00F0A6FCA36B7BB307
:1066180031462046E568FFF775FDB8F1000F18D13F
:10662800A36B013BA363236813B9FFF729FD6060DF
:106638002369BBB104F11000FFF7DEFB012811D17B
:106648003C4B4FF080521A60BFF34F8FBFF36F8FF0
:1066580008E0636AE5602BB104F12400FFF7CCFB86
:106668000028EDD100F09AFC012004B0BDE8F087C5
:10667800019D1DB900F092FC0020F6E7BAF1000F69
:1066880002D102A8FFF7FAFB00F088FCFFF740F8F8
:1066980000F062FC636C013304BF00236364A36CE5
:1066A800013304BF0023A36400F078FC01A902A809
:1066B800FFF7FCFB80BB00F04FFCA36B13BB00F0A3
:1066C8006DFCE36C43F44073C9F80030236833B9B8
:1066D80000F042FC6068FFF739FC00F05FFC0199AC
:1066E80004F12400FFF712FB2046FFF720FDFFF717
:1066F800B7F870B94FF080533B60BFF34F8FBFF3CB
:106708006F8F06E000F04AFC2046FFF710FDFFF708
:10671800A7F84FF0010A77E72046FFF708FDFFF7D3
:106728009FF8A9E720A8020839A80208D5A70208F7
:10673800D8A8020804ED00E00C0000E0F8B50F4608
:106748001646044628B940F215621D491D481FF037
:1067580081F93FB9236C2BB140F2166218491A48E7
:106768001FF078F900F0FCFCEFF311854FF05F03A0
:1067780083F31188BFF36F8FBFF34F8FA06BB8B14E
:1067880039462046FFF7BEFCA36B013BA363636C4D
:10679800013310D123690BB9012009E004F110007D
:1067A800FFF72AFB0028F7D0002EF5D00120306033
:1067B80085F31188F8BD636C01336364ECE700BFAF
:1067C80020A8020839A80208D5A7020810B504466F
:1067D80028B94FF4D462054905481FF03BF900F089
:1067E800BBFBA46B00F0DAFB204610BD20A8020812
:1067F8003AA8020810B5044628B940F60702054928
:1068080005481FF027F9E06BA36BC31A584258419B
:1068180010BD00BF20A802083AA8020830B5074AF0
:10682800002352F8335002EBC3041DB942F8331069
:10683800606030BD01330A2BF3D1FAE734700120D0
:1068480070B504460D46164600F086FB636C0133AE
:1068580004BF00236364A36C013304BF0023A36453
:1068680000F09CFBA36B2BB93246294604F12400A7
:10687800FFF786FA2046BDE87040FFF758BC0000D5
:10688800F8B5134C00F068FB2568EDB9114F124EAE
:106898003846FEF761FC3046FEF75EFC0F4B1F6082
:1068A8000F4B2A460C2114201E60FFF7B7FC20600E
:1068B80028B940F21A320B490B481FF0CBF8206870
:1068C80010B10A49FFF7AAFFBDE8F84000F066BB1F
:1068D800D80D0020AC0D0020C00D0020A40D002014
:1068E800A80D0020A2A90208BCA90208C8A902088C
:1068F800914208B5416000610AD8D21A83699A4268
:106908000DD2084B011D1868FEF740FC002008BD99
:106918009A4201D2994202D2011D034BF3E70120AA
:10692800F5E700BFA80D0020A40D00201FB5FFF754
:10693800A7FF0E4B1B684BB90D480E494FF48772E1
:106948001FF088F8002005B05DF804FB0023012241
:106958000092CDE9023301934FF4167206490748B5
:10696800FEF7DEFC0028E7D0EDE700BFD80D0020D9
:106978006EA60208A2A9020816AA0208BD6A0008A3
:106988002DE9F041804617461E460D4699B12C2048
:1069980000F0A8F9044658B1FFF772FF069BC4F847
:1069A8000080C4E9065726626362201DFEF7DFFBFC
:1069B8002046BDE8F0814FF49B72034903481FF05D
:1069C80049F82C46F4E700BFA2A90208FAA9020870
:1069D8002DE9FF410D4690461F46064628B940F26C
:1069E8004112104910481FF035F8104C206880B14A
:1069F800052DCDE9015803960EDCFFF797FA002321
:106A0800022808BF0A9A206818BF1A4601A9FFF78A
:106A180039FC04B0BDE8F08100233A4601A9FFF72C
:106A28001DFDF6E7A2A902081EAA0208D80D00203B
:106A38002DE9F7431B4D1C4FDFF874802B681A684B
:106A480032B91A4A11682960136003B0BDE8F083AF
:106A5800DB68DC681E6804F104094846FEF7ADFBF4
:106A6800636A20469847E369012BE7D1A369334459
:106A78009E4206D26360246149462868FEF786FB79
:106A8800DCE700230093324619462046FFF7A0FFB3
:106A98000028D3D14FF43F72394640461EF0DAFF42
:106AA800CCE700BFA40D0020A2A90208A80D002071
:106AB800CDA902082DE9F04F654F664E89B0BB4657
:106AC8003A681368002B44D0D268D2F800A0624C10
:106AD8000393FEF71DFEFEF723FE2268DFF88C8184
:106AE800039B90420546A14635D2FFF7A1FF2560DA
:106AF800FEF7B6FE00231A4605A9D8F80000FFF7EE
:106B08005DFD0028DCD0059B002BF3DB079C636947
:106B180013B1201DFEF751FBFEF702FED9F8003035
:106B28009842054601D2FFF783FF059BC9F800503C
:106B3800092BDFD8012202FA03F313F4047A75D182
:106B480013F0C70F4DD19B06D4D5204600F068F945
:106B5800D0E79A46BBE7206043B382453FD8FEF7AB
:106B68007FFEDBF80030DB68DC68201DFEF725FBC4
:106B7800E369012B16D1A16953462A4651442046A0
:106B8800FFF7B6FE01280DD100230093524619469F
:106B98002046FFF71DFF28B940F2931231462F48CF
:106BA8001EF058FF636A20469847A3E72C4B1B68E2
:106BB8001A68B2FA82F25209AAEB0501D8F8000065
:106BC800FFF73EFEFEF74CFE002893D1254B4FF011
:106BD80080521A60BFF34F8FBFF36F8F8AE700228E
:106BE800EAE7A169069B2A4619442046FFF780FE7A
:106BF80001287FF47FAF636A20469847E369012B39
:106C08007FF478AFA2690699CDF800A00A445346EC
:106C180051462046FFF7DCFE00287FF46BAF4FF4A7
:106C2800287231460D481EF015FF63E7069BA361E5
:106C38002BB940F2B72231460B481EF00BFFA16971
:106C48002B462A4629442046FFF752FE52E700BF4A
:106C5800A40D0020A2A90208D40D0020CDA9020885
:106C6800A80D002004ED00E0D5A90208D80D0020E9
:106C780010B5044628B94FF45372054905481EF06B
:106C8800E9FE00F069F9246A00F088F9204610BD91
:106C9800A2A902081EAA020810B5104B1A6882425F
:106CA80019D35C681919884201BF41681846091947
:106CB800596041684418A24208D1094C2468A2428C
:106CC80004D052680A4442601A6812680260984206
:106CD80018BF186010BD1346E0E700BF2CAA0020BB
:106CE800DC0D00202DE9F8430446FEF711FD42496A
:106CF800424E0B68FBB9424A424D50071FBF07324C
:106D0800414B22F007029B1A08BF49F6404313443F
:106D1800083B23F00703002068602A60C3E90000ED
:106D2800981A0B60C2E90030384B1860384B18606D
:106D38004FF00043336033681C4205D0FEF790FDE6
:106D48000DF060F8002748E0002CF7D008346207FF
:106D58001CBF24F007040834002CEFD02C4B1A6811
:106D6800A2429846EAD3274B1D686A68A24202D21B
:106D78002A68002A3CD10A68AA42DFD02A681F681C
:106D88001A606B681B1B102B07F1080711D905EB5C
:106D9800040919F0070F04D0E8221E491E481EF006
:106DA80059FE6B681B1BC9F8043048466C60FFF736
:106DB80073FF16496A68D8F8003008689B1A83423E
:106DC80038BF0B60C8F80030336813436B6000238A
:106DD8002B60FEF745FD002FB2D07B0705D04FF49E
:106DE80094720C490D481EF035FE3846BDE8F8830C
:106DF8002B461546B9E700BFDC0D002020AA00206D
:106E0800E00D00202CAA002020AA002028AA00209B
:106E180024AA002025AA020850AA020891AA02085A
:106E280038B5044680B3194D50F8041C2A6811423D
:106E380005D14FF49E72164916481EF00BFE54F801
:106E4800083C2BB140F23D12114913481EF002FED6
:106E580054F8043C2A68134216D054F8081C99B90F
:106E680023EA020344F8043CFEF752FC0B4A54F8A8
:106E7800043C1168A4F108000B441360FFF70CFFF1
:106E8800BDE83840FEF7ECBC38BD00BF20AA0020A2
:106E980025AA0208CEAA0208FFAA020824AA0020EE
:106EA800014B1868704700BF24AA002006480068F4
:106EB800006880F3088862B661B6BFF34F8FBFF3EE
:106EC8006F8F00DF00BF000008ED00E0DFF80C0066
:106ED800016841F4700101607047000088ED00E02E
:106EE80008B5094B1B68013305D040F20712074962
:106EF80007481EF0AFFD4FF05F0383F31188BFF31F
:106F08006F8FBFF34F8FFEE7000000201FAB020812
:106F18004DAB02084FF0807340E90213054B40F86F
:106F28000C3C6FF0020340F8202C40F8243C443815
:106F3800704700BFE96E0008064B19680868B0E89A
:106F4800F04F80F30988BFF36F8F4FF0000080F394
:106F580011887047880C00204FF05F0383F3118875
:106F6800BFF36F8FBFF34F8F084A13680133012BAC
:106F780013600AD1064B1B6813F0FF0F05D040F2CF
:106F88009F12044904481EF065BD704700000020A8
:106F980004ED00E01FAB020867AB020810B5084C0F
:106FA80023682BB94FF4D372064907481EF052FDE7
:106FB8002368013B23600BB983F3118810BD00BF20
:106FC800000000201FAB02089CAB0208EFF3098009
:106FD800BFF36F8F144B1A681EF0100F08BF20ED17
:106FE800108A20E9F04F10604DF8043D4FF05F0023
:106FF80080F31188BFF34F8FBFF36F8FFEF7CEFD7D
:107008004FF0000080F3118808BC19680868B0E8E0
:10701800F04F1EF0100F08BFB0EC108A80F30988FB
:10702800BFF36F8F704700BF880C002008B5EFF3DF
:1070380011834FF05F0282F31188BFF36F8FBFF3A4
:107048004F8FFEF773FB18B1034B4FF080521A6055
:10705800002383F3118808BD04ED00E0034B044AC4
:107068001A60072243F8042C704700BF14E000E0C0
:107078003F90020013B52E4C2E4A2168914205D14B
:1070880040F23D122C492D481EF0E4FC22682C4B9E
:107098009A4205D14FF49F7227492A481EF0DAFC1C
:1070A800294B1A78D2B20192FF221A701B78274A0C
:1070B800DBB28DF803309DF8033003F05F031370E3
:1070C800234B07221A6000219DF80300000602F1F5
:1070D800FF3423D401B11A601A68120202F4E06284
:1070E8001A60019B184ADBB213701A4B1A6842F4F3
:1070F8007F021A601A6842F07F421A60FFF7AEFFFB
:10710800154B00221A60FFF7E1FE144A136843F09A
:1071180040431360FFF7CAFEFFF7E2FE9DF8032025
:107128005200D2B28DF8032001212246CCE700BFDD
:1071380000ED00E071C20F411FAB02081AAC020853
:1071480070C20F413DAC020800E400E034AA002000
:1071580038AA002020ED00E00000002034EF00E015
:1071680008B5EFF305830F2B0BD90E4A9B5C0E4A2B
:1071780012789A4205D94FF438720C490C481EF01F
:1071880069FC0C4B0C4A1B68126803F4E0639342D9
:1071980007D94FF43C7205490848BDE808401EF07D
:1071A80059BC08BDF0E300E034AA00201FAB020878
:1071B800AEAB02080CED00E038AA0020D8AB0208FC
:1071C80008B501214FF4807000F058FC00214FF4FD
:1071D8008070BDE8084000F051BC000043680A799F
:1071E80023F0407323F4807343EA02230A681343AD
:1071F8004360D1E9032313438A6810B513438468B5
:10720800084A224013434A7943EA420383600A7DCD
:10721800C36A013A23F47003D2B243EA0253C36249
:1072280010BD00BFFDF7FFC0002303600371437169
:10723800C0E90233036101230375704710B5D0E933
:107248000032064913434C68054A224013438268BA
:107258001343C26813434B6010BD00BF00230140B5
:10726800E030FCFF0023C0E90033C0E90233704777
:10727800836819B143F001038360704723F0010369
:10728800FAE7092970B51BD9A1F10A04C56804EB0E
:1072980044040726A64025EA060503FA04F42C430D
:1072A800C460062A18D8013A436B02EB82021F24F5
:1072B800944023EA040301FA02F21A43426370BDC0
:1072C800056901EB41060724B44025EA040503FAE1
:1072D80006F42C430461E4E70C2A0CD8073A036B44
:1072E80002EB82021F24944023EA040301FA02F20B
:1072F8001A430263E3E70D3AC36A02EB82021F24D2
:10730800944023EA040391401943C162D7E7836894
:1073180043F0804383607047C06C80B27047036855
:10732800194214BF0120002070470000044B9A68DE
:1073380011B110439860704722EA0000FAE700BFD5
:10734800002004E0044BDA6811B11043D86070479C
:1073580022EA0000FAE700BF002004E0036823F0F7
:10736800010303600023036043608360C36003611B
:10737800212343612A4B984203D13D2243F8082C2C
:107388007047284B984204D14FF4746243F8202C7C
:107398007047254B984204D14FF4741243F8382CA7
:1073A8007047224B984204D14FF0746243F8502C36
:1073B80070471F4B984203D11E4A43F8642C70470C
:1073C8001D4B984203D11D4A43F87C2C70471C4B37
:1073D800984203D11B4A43F8942C70471A4B9842A1
:1073E80004D14FF03D5243F8AC2C17E0174B9842AC
:1073F800C3D0174B9842C7D0164B9842CCD0164BE7
:107408009842D1D0154B9842D6D0154B9842DAD035
:10741800144B9842DED0144B9842E2D0704700BF1C
:1074280010600240286002404060024058600240FC
:10743800706002403D00002088600240400F00203C
:10744800A060024000003D20B86002401064024085
:10745800286402404064024058640240706402405C
:1074680088640240A0640240B86402400368134A7A
:1074780010B51A40CC680B6823434C6923438C69C8
:107488002343CC6923430C6A23434C6A23438C6A05
:1074980023434C6B23438C6B234313430360D1E991
:1074A8000B344269234322F00702134343610B69FB
:1074B80043604B6883608B68C36010BD3F801CF0DD
:1074C800036819B143F001030360704723F0010317
:1074D800FAE741607047406880B27047006800F082
:1074E8000100704710B50A4B0A4C0B4AA04294BFE2
:1074F800184610468B004CBF4368036821F0F02102
:1075080021F08211194214BF0120002010BD00BFD4
:10751800006002400F6402400064024010B5084B4E
:10752800084A094CA0428CBF1846104621F0F023A7
:1075380023F082138A004CBFC360836010BD00BF74
:1075480000640240006002400F6402400B0612D53E
:10755800436952B143F080038029436104D0036832
:1075680001F01E0119430160704723F08003802950
:10757800436104D170478029F6D0002AEFD103680F
:1075880001F01E0123EA0101EDE70000114B124A48
:1075980010B5124CA04288BF1A4621F0F02323F000
:1075A800C31393B1006800EAD12000F01E038800DD
:1075B8004CBF5068106821F0F02121F0821108407A
:1075C80002D0181C18BF012010BD436903F08003C6
:1075D800EDE700BF00640240006002400F64024013
:1075E800FFF79CBF0268837910B5D243002B2FD0D8
:1075F8001B4B19680A401A605A68016822EA01029E
:107608005A600279046802F1804202F59E321168DC
:10761800214311609A68016822EA01029A600168B0
:10762800DA6822EA0102DA6042790168102A07D191
:107638009A680A439A60DA6801680A43DA6010BDFA
:1076480002F1804303F59E331A680A431A60F6E78D
:10765800037903F1804303F59E3319680A40F5E77F
:10766800003C0140034B5B69034214BF012000202A
:10767800704700BF003C0140014B5861704700BF94
:10768800003C0140FFF7EEBF014B5861704700BF57
:10769800003C0140F0B50022012603250B6806FADC
:1076A80002FC3CEA03032ED15400076805FA04F3F0
:1076B800DB431F4007600F79D0F800E0A74047EA96
:1076C8000E0707600F79013F012F11D887683B40EB
:1076D80083604B798768A3403B438360436823EA10
:1076E8000C0343608B79476893409BB23B434360EC
:1076F800C36805FA04F723EA0703C360CB79C768B0
:10770800A3403B43C3600132102AC7D1F0BD4FF6F6
:10771800FF7303600023037143718371C371704762
:107728000369194214BF0120002070470183704784
:10773800418370470AB1018370474183704710B590
:1077480001F00703C90800EB81009B00016A0F24C0
:107758009C4021EA04010162016A9A400A430262DC
:1077680010BD000008B5144B98420BD101214FF40D
:10777800001000F077F900214FF40010BDE8084030
:1077880000F070B90D4B984208D101214FF48000E8
:1077980000F068F900214FF48000EFE7084B9842A9
:1077A80008D101214FF4000000F05CF900214FF4EA
:1077B8000000E3E708BD00BF005400400058004047
:1077C800005C00407FB5868826F03F0604463604F4
:1077D80068460D46360C00F0D1F8029A2949B2FBEA
:1077E800F1F188B20643A6802388274E23F00103CF
:1077F8001B041B0C23802B68B3421ED85B0001308E
:10780800B2FBF3F39BB2042B80B238BF042320846D
:10781800A383238843F0010323802388AA886989E6
:1078280023F481630A4323F0020313432380AB89C3
:107838002A891343238104B070BDEE884BF6FF708C
:1078480086421BBF1920434303EB4303B2FBF3F308
:1078580015BF9BB2B2FBF3F343F480439BB2C3F36F
:107868000B020AB943F001034FF496724A434FF4EE
:107878007A7192FBF1F2013292B243F4004322840E
:10788800C6E700BF40420F00A086010022B141F0C8
:10789800010189B20182704701F0FE01F9E703880E
:1078A80019B143F480630380704723F480631B0499
:1078B8001B0CF8E701827047008AC0B270478388C2
:1078C80019B143F400638380704723F400631B04F9
:1078D8001B0CF8E7838819B143F480538380704701
:1078E80023F480531B041B0CF8E7838812B1194357
:1078F8008180704723EA0101FAE782B000230093F0
:1079080001930B0F01900093009B21F07F4153B12D
:10791800019B14330193019B1B680B4214BF012088
:10792800002002B07047019B090C1833F2E7C943E5
:1079380089B2818270470000014B1860704700BF10
:1079480000300040014B5860704700BF00300040D5
:10795800014B9860704700BF00300040024B4AF668
:10796800AA221A60704700BF00300040024B4CF654
:10797800CC421A60704700BF0030004010B51D4A65
:10798800936803F00C03042B1AD0082B1AD01A4B57
:10799800184A036093681949C3F30313CC5C03685E
:1079A800E34043609468C4F382240C5D23FA04F432
:1079B80084609268C2F342328A5CD340C36010BDCF
:1079C8000F4BE5E75468516852686302C2F38812A6
:1079D80001F03F014CBF0A4B074BB3FBF1F3534394
:1079E800044A5268C2F3014201325200B3FBF2F377
:1079F800CEE700BF003802400024F4000400002055
:107A080000127A00044B1A6B11B1104318637047C7
:107A180022EA0000FAE700BF00380240044B5A6B24
:107A280011B110435863704722EA0000FAE700BF1B
:107A380000380240044B1A6C11B1104318647047A7
:107A480022EA0000FAE700BF00380240044B5A6CF3
:107A580011B110435864704722EA0000FAE700BFEA
:107A680000380240044B1A6A11B11043186270477B
:107A780022EA0000FAE700BF00380240044B5A6AC5
:107A880011B110435862704722EA0000FAE700BFBC
:107A9800003802404209012A074B07D11B6800F051
:107AA8001F0023FA00F000F001007047022A0CBF03
:107AB8001B6F5B6FF3E700BF00380240024A536F49
:107AC80043F08073536770470038024008B5274B6E
:107AD80098420BD101214FF48050FFF7CFFF0021CE
:107AE8004FF48050BDE80840FFF7C8BF204B9842CC
:107AF8000BD101214FF48040FFF7B4FF00214FF470
:107B08008040BDE80840FFF7ADBF1A4B984208D146
:107B180001214FF40040FFF7A5FF00214FF400407A
:107B2800EFE7154B984208D101214FF40050FFF7B9
:107B3800A5FF00214FF40050D4E7104B984208D11C
:107B480001214FF48010FFF799FF00214FF48010B6
:107B5800C8E70B4B984208D101214FF40010FFF7FA
:107B68008DFF00214FF40010BCE708BD0030014034
:107B780000380040003C0040003401400050014003
:107B880000540140038810B503F441524C880B8817
:107B980023438C882343CC8823430C8923434C8973
:107BA80023438C892343CC89234313430380838B4A
:107BB80023F400631B041B0C83830B8A038210BD10
:107BC800038819B143F040030380704723F0400352
:107BD8001B041B0CF8E780897047818170478388F4
:107BE80012B119438180704723EA0101FAE703893A
:107BF800194214BF01200020704730B5048C24F0CE
:107C080001042404240C0484048B058C24F0F3045C
:107C1800240442EA0313240C1C4325F00A031B0422
:107C28001B0C41F00101A4B20B430483038430BD53
:107C380030B5048C24F010042404240C0484058B2F
:107C4800048C120242EA033324F0A00225F44075A2
:107C580012042D05120C2D0D42EA01111D4341F0AD
:107C68001001ADB289B20583018430BD1C4A038876
:107C780090429BB212D002F5806290420ED0B0F1D1
:107C8800804F0BD0A2F58032904207D002F5806277
:107C9800904203D002F58062904203D14A8823F0D3
:107CA800700313430F4A904208D002F58062904255
:107CB8001FBF23F440730A899BB2134303804B68A8
:107CC800C3620B880385064B984203D003F5806393
:107CD800984201D18B7A038601238382704700BFC3
:107CE800000001400010004000234FF0FF32C0E9BF
:107CF800003203818372704701858282704703884E
:107D080019B143F001030380704723F001031B04FA
:107D18001B0CF8E7038C23F001031B041B0C0384E2
:107D280070B5038C8288048B0D884E8824F0730408
:107D38002404240C2C4323F002038D891B043543AF
:107D48001B0C2B430D4DA84292B203D005F580655C
:107D5800A8420DD1CD894E8A23F008032B438D8884
:107D680023F004032B430D8A22F4407235432A433F
:107D7800828004838A684263038470BD00000140E6
:107D8800038C23F010031B041B0C038470B5038CB5
:107D98008488028B0D884E8822F4E6421204120C65
:107DA80042EA052223F020038D891B0435431B0C6E
:107DB80043EA0513114DA842A4B292B29BB203D074
:107DC80005F58065A84213D1CD894E8A23F080033A
:107DD80043EA05134FF6BF751D408B8845EA031328
:107DE8000D8A24F44064354344EA85049BB2A4B266
:107DF800848002838A688263038470BD0000014026
:107E0800038C23F480731B041B0C038470B5038C50
:107E18008288848B0D884E8824F073042404240CF3
:107E28002C4323F400738D891B0435431B0C43EA50
:107E38000523114DA84292B29BB203D005F5806587
:107E4800A84213D1CD894E8A23F4006343EA05235F
:107E58004FF6FF351D408B8845EA03230D8A22F42F
:107E68004052354342EA05129BB292B28280848323
:107E78008A68C263038470BD00000140038C23F448
:107E880080531B041B0C038470B5038C8488828B7D
:107E98000D884E8822F4E6421204120C42EA0522AA
:107EA80023F400538D891B0435431B0C43EA053327
:107EB8000A4DA842A4B292B29BB203D005F58065E0
:107EC800A84205D10D8A24F4804444EA8514A4B25A
:107ED800848082838A680264038470BD0000014044
:107EE8004163704781637047C1637047016470479D
:107EF800038B23F008031B041B0C194301837047F1
:107F0800038B23F400631B041B0C43EA012189B291
:107F180001837047838B23F008031B041B0C194350
:107F280081837047838B23F400631B041B0C43EA93
:107F3800012189B281837047002301220380438095
:107F48008280C38003817047406B7047806B7047A5
:107F5800006C7047038B23F00C031B041B0C03837A
:107F6800038B194301837047038B23F440631B047D
:107F78001B0C0383038B43EA012189B201837047F9
:107F8800838B23F00C031B041B0C8383838B194303
:107F980081837047838B23F440631B041B0C83830A
:107FA800838B43EA012189B281837047F8B50E4675
:107FB8000D88B2884988338935B9FFF71EFEF188E4
:107FC800BDE8F840FFF7C6BF042D06D1FFF730FE25
:107FD800F188BDE8F840FFF7C7BF082D058C1CD114
:107FE80025F480752D042D0C0584878B058CBFB274
:107FF80027F0F3073A43ADB242EA031325F42062AF
:1080080042F4807242EA01219BB289B283830184DF
:10801800F188BDE8F840FFF7B3BF25F480552D047B
:108028002D0C0584878B058C25F4005527F44077A3
:108038006D043F051B036D0C3F0D45F4805543EA65
:1080480002233B4345EA01319BB289B28383018411
:10805800F188BDE8F840FFF79DBFB0F8443021B182
:1080680043F40043A0F844307047C3F30E03F9E724
:10807800838912B119438181704723EA0101FAE724
:10808800038A194214BF012000207047038A82899D
:1080980011EA030092B203D00A4214BF0120002063
:1080A8007047C94389B201827047FFF7E1BF0000FA
:1080B80030B5038ACA889BB223F440531343038222
:1080C80083890D4623F4B0528B8809890B4369894B
:1080D80022F00C020B4313438381838AAA899BB243
:1080E80023F44073134385B0838204466846FFF740
:1080F80045FC1A4B9C4203D003F580639C4222D175
:108108000399A2891923100403FB01F3A2892968A2
:108118004FF064054CBF490089001204B3FBF1F12C
:10812800B1FBF5F34FEA031005FB13130DD5DA0085
:108138003232B2FBF5F202F0070242EA00039BB2C8
:10814800238105B030BD0299DBE71B013233B3FB55
:10815800F5F303F00F030343F1E700BF00100140FC
:10816800838919B143F400538381704723F4005382
:108178001B041B0CF8E7C1F3080181807047808855
:10818800C0F308007047838A12B11943818270478F
:1081980023EA0101FAE710B5C1F3421401F01F0305
:1081A800012C4FF0010101FA03F105D10C300368ED
:1081B8003AB11943016010BD022C0CBF10301430C5
:1081C800F5E723EA0101F5E7C94389B20180704761
:1081D800C1F3421210B5012301F01F04012A03FA6A
:1081E80004F30DD182891340028892B26BB1012346
:1081F800090A03FA01F10A4214BF1846002010BD0B
:10820800022A0CBF028A828AEDE71846F7E70000C7
:1082180040F0BF60024B40F40030D860704700BFA8
:1082280000ED00E010B5C378027803B3154BD968A8
:108238004378C943C1F30221C1F10404E4B2A34065
:10824800DCB20F2343FA01F183780B400E49234334
:108258000A441B01DBB282F8003303780122580973
:1082680003F01F0302FA03F341F8203010BD53094D
:10827800012102F01F0201FA02F22033024941F8FB
:108288002320F3E700ED00E000E100E010B501F085
:10829800030301F0FC0101F1804101F59C319B00D1
:1082A8008A680F249C4022EA04028A608A689840FF
:1082B8001043886010BD000037B50023114C0193AE
:1082C800054603200BF06DF82A68013C13690193F9
:1082D80014D0019B002BF4DA019B43F001030193B6
:1082E800019B13612968074B0A690192013B02D07F
:1082F800019AD207F8D403200BF053F8002003B0FA
:1083080030BD00BF410D030010B5C47844B900EB7F
:1083180082000333D0F8D0009B102246934201D14B
:10832800002010BD51F8224004600132F6E710B574
:108338000332D0F8D03092100020904202D101EBE5
:10834800800010BD1C6841F820400130F5E70000AE
:10835800012330B5012943804FF04003838039D190
:108368004FF4816303804FF4A073C3800223037228
:10837800C1724FF0A04303F500624478026100F136
:108388001802C36003F5106102EB8404A2422DD1E8
:1083980003F580624261044603F58862C0F8CC2088
:1083A80014F8902B03EB421503F5A06105F5A065C1
:1083B800A94222D103EB023203F5805100F1D00427
:1083C80002F5805291421CD103F56063C0F80C316C
:1083D800002030BD41B940F20C6303804FF4A06324
:1083E800C380C172094BC6E70023C4E742F8041BE7
:1083F80001F5007595632031C8E744F8041B203166
:10840800D6E744F8041B01F58051DBE7000004407F
:1084180038B5054600242B7A50F80C2F012B2BD1A8
:10842800936B697A64F3104309B143F4801393633F
:10843800EA68D3686FF386136FF396536FF351436B
:108448006FF3D343D360FFF737FFEB78012B06D1E7
:10845800052363F34404EB6844F020049C60EB7844
:10846800012B07D1EB689C68052262F3440444F0B1
:1084780020049C60002038BDD36843F04003D360DB
:10848800FFF71AFF6B7AEA68002B0CBF4FF434131E
:108498004FF47413936314200AF08DFFDFE7C2686A
:1084A800936843F00103936000207047C2689368A3
:1084B80023F00103936000207047000007B50023F4
:1084C8000193019B43F020030193019B61F38A13FD
:1084D8000193C368019A1A61C168074B0A6901923E
:1084E800013B02D0019A9206F8D403200AF059FF02
:1084F800002003B05DF804FB410D030007B500231D
:108508000193019B43F010030193C368019A1A6118
:10851800C168074B0A690192013B02D0019AD20651
:10852800F8D403200AF03DFF002003B05DF804FBF7
:10853800410D030008B5C268D36801296FF35D7364
:108548006FF39E7307D143F00053D36032200AF0D3
:1085580032FF002008BD0029F7D143F08043F4E73B
:10856800C3685869C04300F001007047C368586980
:108578009B69184070470269136861F3010313602F
:108588007047000010B5C26800239361C1686FF09E
:1085980080424A61C1684FF0FF344C60C1684A614B
:1085A800C26809499161C2789A4208BF1023C2681B
:1085B80043F47013916943F4605343F008030B4389
:1085C8009361002010BD00BF0008008070B5D0F88E
:1085D8000C31002119600269136861F3CC23136020
:1085E800C37A012B044616D10321FFF7C4FFC368E1
:1085F80080225A62C36802F500129A62C2682D4B43
:10860800C2F80431C2682C4BC2F80831C2684FF472
:10861800A073C2F80C3110212046FFF74FFF204607
:10862800FFF76CFF226900231361226953612269F5
:108638004FF0FF31916122691846D361FF2504F19B
:1086480018026178994217D8002304F15402184699
:10865800FF25617899421ED82269136943F4807313
:108668001361E378012B02BF2369144A1A63204679
:10867800FFF788FF002070BD11680E68002EACBFA0
:1086880000264FF090460E601168086152F8041BEE
:1086980001338D60D5E711680E68002EACBF002647
:1086A8004FF090460E601168086152F8041B0133C0
:1086B8008D60CEE7A000800020012000030181002A
:1086C80003699B68C3F34103022B04D001D8012B33
:1086D80003D10220704701207047032070470369C7
:1086E80081699A680B68C2F34102022A06BF032215
:1086F80062F30A036FF30A030B600269536843F4D9
:10870800807353600020704730B50B784D78012294
:108718009A4000EB8303012D0CBF9D695D6D2B68AA
:1087280092B24FF000040CBF62F30F0462F31F44CF
:108738001A040DD48A6862F30A03CA7862F3934371
:10874800CA8862F3995343F0805343F400432B6083
:108758000369DA691443DC61002030BD30B50B7859
:10876800497801229A4000EB830301290CBF9B69D9
:108778005B6D4FF000052C466FF3CF351D6092B24C
:108788000CBF62F30F0462F31F440269D36923EA42
:108798000403D361002030BDF8B54E780A784B69E0
:1087A800012E00EB820247D195692A682C6963F390
:1087B80012043BBB66F3DC442C61C3780C78012BB4
:1087C8002DD100EB84030C699B695C61CB78012B8C
:1087D80007D103699B68DB0554BF42F0005242F0A1
:1087E80080520B7800EB830342F004429B691A60C5
:1087F800CB78012B04D18B8A0A78C968FFF784FDEE
:108808000020F8BD8E683344013BB3FBF6F363F3F5
:10881800DC44CB78012B08BF63F35E74CCE7CB78DC
:10882800012BD3D04B69002BD0D0056901236E6B87
:10883800A34033436B63C9E7566D8F683268346968
:10884800C7F31205EBB965F31204012363F3DC44A3
:108858003461C378012B05D10B780C6900EB8303D5
:108868005B6D5C61CB78012B03D14B79ABB142F0E6
:1088780000520B7800EB830042F00442436D1A600B
:10888800BEE73B44013BB3FBF7F3C3F3090363F3D0
:10889800DC446B4363F31204DAE742F08052E8E702
:1088A800F7B54F784D69012F3BD186693468336934
:1088B8000093DAB2C3F307431DBB65F306028DF8D4
:1088C800002067F3C4038DF80230009B3361C3783E
:1088D800012B05D10B780A6900EB83039B695A6168
:1088E80044F004443460C37843B94B6933B1026936
:1088F8000978506B01238B4003435363002003B076
:10890800F0BD8F68AF4234BF67F3060265F3060215
:108918008DF800204FF0010238BF4F6162F3C403A5
:10892800D1E70E78D1F808C000EB86060CF07F0777
:10893800736D1C681B690093DAB2C3F30743E5B98A
:1089480067F306028DF80020012262F3C4038DF854
:108958000230736D009A1A61C378012B05D10B7828
:108968000A6900EB83035B6D5A610B7800EB8300A7
:1089780044F00444436D1C60C0E7C1F814C0DFE74D
:108988004A780B78012A00EB83000AD182691368C0
:10899800002B01DA43F0804343F4001313600020F6
:1089A8007047426D1368F7E70B784A78C97800EB8F
:1089B8008300012A0CBF8269426D136802396FF384
:1089C8005553012998BF43F0805313600020704726
:1089D80003699869DB691840000C704700EB810156
:1089E8004B6D9A6803695869104070470369986924
:1089F800DB69184080B27047426D094B136182B041
:108A08000093C378012B08D1436D00F2CC525A6110
:108A1800436D1A684FF080221A6002B0704700BF99
:108A2800180008C02DE9F04F85B00446FFF798FDFF
:108A380018B9002005B0BDE8F08F2046FFF796FD75
:108A480080460028F5D0C0F3074313F008000093D0
:108A58000CD02046FFF7BCFFDFF8909207460025B0
:108A68004FF0020B002F40F0F8800120009B5D07BB
:108A78000AD52046FFF7BAFF254681460026B9F1F8
:108A8800000F40F0378101205FFA88F5AB0742BF3D
:108A9800E36802225A61B8F1000F19DAA37A43B1E8
:108AA800D4F80C31D4F80C216FF341036FF30003B1
:108AB80013602269536823F0010353608B4B1B68D2
:108AC80020469B699847E3684FF000425A610120AD
:108AD800C8F3072818F0080F2FD000238DF80F309F
:108AE80094F812318DF80F30804B1B6820465B6973
:108AF80098472369E2689B684FF400615161A27A44
:108B0800D2B1DF0718D594F81531012B14D19DF88F
:108B18000F30032B10D1D4F80C21136843F0010354
:108B28001360D4F80C21136843F003031360704AF0
:108B3800136943F00603136101202E0708D56B4B18
:108B48001B682046DB689847E36808225A610120C1
:108B5800E90616D5E268936923F010039361E36888
:108B68001D6AC5F34343022B05F00F0700F052813D
:108B7800062B00F06A81E268936943F01003936161
:108B8800012018F0100F2FD02269536823F0010339
:108B9800536000212046FFF791FC04F118020023DE
:108BA800FF2160788342C0F05C8123694FF0FF3277
:108BB8009A6123694FF00112DA6122690B2353612C
:108BC80022691361226913686FF30A131360204640
:108BD800FFF712FFE3684FF480525A61434B1B685A
:108BE80020461B699847012018F0200F19D020460D
:108BF800FFF775FDE3682046DD68FFF761FD032890
:108C080040F036810023A3704FF40073A38009233A
:108C180063F38D25E368DD60E3684FF400525A6121
:108C28000120009BDA0609D5304B1B682046DB691A
:108C38009847E3684FF480125A610120009B9B0615
:108C48007FF5F8AE294B1B6820461B6A9847E368F6
:108C58004FF400125A610120ECE6F9071CD55FFABF
:108C680085FA51462046FFF7B9FEC20717D40646D3
:108C7800B30741BF04EB850302265B6DC3F808B058
:108C8800360709D5D9F8003020469B68984704EB89
:108C9800850308225B6D9A6001357F08E2E604EBE4
:108CA80085020126516D8E60E178B1420BD1516D7C
:108CB8002420096900FB0522C1F31200D2F87C13B5
:108CC800091AC2F88C13D9F80020514612682046B8
:108CD8009047E378012BCBD1002DC9D194F81131FD
:108CE800052BC5D12046FFF787FEC1E740000020CD
:108CF80000ED00E019F0010F6CD023695FFA86FAE5
:108D08001A695F6B04EB8A0327FA0AF79B69FF016C
:108D18009B68FFB217431F40F90715D504EB86037C
:108D280001279B699F60554B1B6851465B6820462D
:108D38009847E378BB4207D136B994F81131042B30
:108D480002D12046FFF758FE3A0741BF04EB8603DD
:108D580008279B699F60FB0641BF04EB8603102729
:108D68009B699F60780641BF04EB860340279B6997
:108D78009F60B90741BF04EB860302279B699F6088
:108D88003A0627D5D5F83421D5F830319B1AD5F8CD
:108D98002421934228BF134603339B08019304EB15
:108DA800860BDBF81830019A9B699BB2934206D96F
:108DB800D5F83431D5F830719F4200D97FB922698E
:108DC8000121536BB14023EA01035363DBF81830E8
:108DD80080229A6001364FEA590928354FE6FF1A72
:108DE800D5F82431D5F828119F4228BF1F46FB1C0F
:108DF8009B0801935246BBB22046FFF785FAD5F887
:108E080028313B44C5F82831D5F834311F44C5F81A
:108E18003471C6E747F6F0732B423FF4ACAE282610
:108E280006FB0746C5F30A152A46D6F880132046DE
:108E3800FFF77DFAD6F880332B44C6F88033D6F88E
:108E48008C331D44C6F88C5395E6082204F2CC51A5
:108E580020462826FFF76BFA06FB0746C5F30A15D6
:108E6800EDE752F8040B8160906B0133816098E65E
:108E78000123A3704023A3800523C9E640000020F6
:108E88000148FFF7CFBD00BFB471012070B504469B
:108E9800FFF75EFA00230121657884F8121184F83F
:108EA800143104F58E72184640269D4202F12802BC
:108EB8001AD8002204F55D7311464020954203F14B
:108EC80028031FD82046FFF7F1FA2046FFF7A0FA3B
:108ED80000212046FFF72EFB2046FFF777FB2046B0
:108EE800BDE87040FFF7DBBA02F8283C22F8223CC4
:108EF80002F8271C02F8250C42E9086042F8140C15
:108F08000133D2E703F8282C23F8222C03F8271C76
:108F180003F8251C43E9080143F8141C0132CDE786
:108F280070B54EB201F07F05002E4FF02804B5BF92
:108F380004FB050104FB010101F58E7101F55D716A
:108F4800002EB8BFCD80022BCB704FEAD67408BF75
:108F580000230D704C708A6008BF0B71FFF7D4FBBB
:108F6800002070BD4BB2002B10B54FF0280201F065
:108F78007F04B5BF02FB040102FB010101F58E71FC
:108F880001F55D71DB0F0C704B70FFF7E7FB0020FC
:108F980010BD70B501F07F04282606FB040506FB0A
:108FA8000401C5F88833002385F87443C5F8802385
:108FB800C5F88C3385F87533C37806FB0404012B98
:108FC80008BFC5F8842394F8743301F55D711BB9A3
:108FD800FFF766FC002070BDFFF7DEFBFAE770B50F
:108FE80001F07F05282404FB050104FB0504012684
:108FF800C4F82821C4F82C21002201F58E7184F8C8
:109008001D6184F81C51C4F83421C4F830311DB9ED
:10901800FFF746FC002070BDFFF7BEFBFAE74BB236
:10902800002B10B54FF0280201F07F04B5BF02FBFA
:10903800040102FB010101F58E7101F55D71012248
:10904800DB0F8A700C704B70FFF79AFC002010BD84
:1090580038B54BB201F07F05002B4FF02802B5BFA1
:1090680002FB050102FB010101F58E7101F55D713D
:109078000024DB0F8C700D704B70FFF795FC2046B9
:1090880038BD0269002361F30A1311680B431360AA
:10909800704710B504461346C4F83C21C4F838217B
:1090A800022280F811210A460021FFF798FF0020CC
:1090B80010BD08B513460A460021FFF790FF0020AF
:1090C80008BD08B513460A460021FFF762FF0020D5
:1090D80008BD10B5042380F81131002304461A4650
:1090E8001946FFF77CFF2046FFF786FC002010BDDD
:1090F80010B5052380F81131002304461A46194695
:10910800FFF747FF2046FFF777FC002010BD10B59A
:1091180080210446FFF783FF20460021FFF77FFFE9
:109128002046BDE81040FFF767BC000073B54B78D8
:1091380004460D46092B6CD8DFE813F0BE00FC008E
:109148006B00CE006B0063000A006B00B000830068
:109158004B881E0A022E25D0032E2ED0012E58D160
:10916800D0F8EC3580781B680DF106019847EB883C
:10917800402B03D094F81231012B02D10823ADF80B
:109188000630BDF80620002A56D0EB88002B53D0B5
:109198009A4228BF1A46ADF8062001462046FFF736
:1091A80078FF49E0D0F8E43580789B6A0DF1060134
:1091B80098474670C4F8F005E3E7DBB2052B28D8DA
:1091C800DFE803F0030B0F13171BD0F8EC355B68CF
:1091D800A0780DF106019847D3E7D0F8EC359B68E5
:1091E800F6E7D0F8EC35DB68F2E7D0F8EC351B6928
:1091F800EEE7D0F8EC355B69EAE7D0F8EC359B6927
:10920800E6E78B882BB9CB881BB990F81231032B72
:1092180003D12046FFF77BFF0EE08D7805F07F0530
:1092280080F814512946FFF72CFF2046FFF751FF1D
:109238002DB1022384F81231002002B070BD012341
:10924800F8E78978414D01292970E2D890F8123160
:10925800022B0DD0032BDCD1B1B9022380F81231D7
:1092680080F8101100F05AFA2046FFF732FFE3E7C2
:109278000029F9D00121032380F8101180F8123158
:10928800204600F03FFAEFE790F810110129EBD0E3
:1092980000F044FA297884F81011F1E7CA88012A05
:1092A800B7D190F81231022B04D0032BB1D100F5BD
:1092B800887173E7264971E790F81231023B012B58
:1092C800A7D8244B01221A60D0F818210AB103222A
:1092D8001A6002221F4961E74B88012B08D1C4F8A4
:1092E8001831D4F8E43529469B6820469847BBE7EF
:1092F800022BA1D18B8813F0FF0F9DD102691B0AA5
:10930800013B5268042B07D8DFE803F0030C0E106A
:109318001200012363F306120F4B1A60012384F82D
:109328001631A1E70223F5E70323F3E70423F1E766
:109338000523EFE790F81231023B012B3FF669AFA6
:109348004B88012B7FF478AF0023C8E748AA002098
:1093580040AA00203CAA00208471012038B590F86A
:109368001231032B04460D460DD10B79012B0AD877
:10937800D0F8E4359B689847EB8813B92046FFF787
:10938800A8FE002038BDFFF7C2FEFAE738B50D4643
:109398008B886A78012A0446D9B21DD02AD3032AB9
:1093A80008D190F81231022B3FD0032B04D020466D
:1093B800FFF7ADFE002038BD6B881BB94B0601D006
:1093C800FFF72DFED4F8E43529469B6820469847D8
:1093D8002046FFF77EFEEDE790F81231022B24D0ED
:1093E800032BE4D16B88002BE4D14A06F0D0FFF7B9
:1093F8002FFEE7E790F81221022A16D0032AD6D1C9
:1094080013F0800F4FF028020E4B15D001F07F01AA
:1094180002FB010191F81E2162B101221A6009497B
:1094280002222046FFF735FEC4E74B06C2D0FFF7FD
:10943800F6FDBFE70022F1E702FB010191F8762370
:10944800EAE700BF44AA002090F8CC350B7090F8EA
:10945800CD354B7090F8CF2590F8CE3503EB02232D
:109468004B8090F8D12590F8D03503EB02238B8000
:1094780090F8D32590F8D23503EB02239BB2CB802A
:10948800C0F84031012380F81131704730B588B1F8
:1094980005462B1A15F8014BDBB2002CF9D1013324
:1094A8005B0013800B7003234B700138022310F804
:1094B800015F05B930BD5A1CD2B2CD540233DBB2BC
:1094C8008C54F4E710B5D0F8E83504461B69984782
:1094D800032384F81231002010BD08B590F812312A
:1094E80080F81331042380F81231D0F8E835DB68AE
:1094F8009847002008BD08B5D0F8E435DB6903B10A
:109508009847002008BD08B5D0F8E4351B6A98478D
:10951800002008BD08B5D0F8E4355B6A98470020FC
:1095280008BD002310B5194604464022FFF7F8FC91
:109538004022802100232046FFF7F2FC012384F813
:109548001231D4F8E835A0785B689847002010BD40
:1095580013B569460446FFF777FF9DF8001001F040
:109568001F03012B0FD007D3022B11D001F080016C
:109578002046FFF754FD03E069462046FFF7D6FD75
:10958800002002B010BD69462046FFF7E7FEF7E766
:1095980069462046FFF7FAFEF2E7000038B50446B0
:1095A800002949D190F81131022B17D1D0F8382170
:1095B800D0F824319A421ED9C178012908BFD0F8C1
:1095C8002811A2EB030204BF5B18C0F82831C0F8C9
:1095D8003821D0F8281192B2FFF76BFD94F81631B4
:1095E800012B06D11A4A236912685A60002384F8AD
:1095F8001631002038BDD0F83C21B2FBF3F503FB4F
:1096080015255DB9934209D8D0F840319A4205D260
:109618002A46FFF74EFDC4F84051DFE7D4F8E43599
:10962800DB682BB194F81221032A01D12046984710
:109638002046FFF75DFDD1E7D0F8E4355B69002BE4
:10964800D7D090F81221032AD3D19847D1E700BF89
:109658008471012010B5044669BB90F81131032BC1
:109668001AD1D0F89033D0F87C23934216D9C17818
:10967800012908BFD0F88013A3EB020304BF89189F
:10968800C0F880139A4228BF1A46C0F8903392B2A5
:10969800D0F88013FFF715FD002010BDD0F8E43591
:1096A8001B6923B190F81221032A00D1984720465C
:1096B800FFF70FFDF0E7D0F8E4359B69002BEBD0FE
:1096C80090F81221032AE7D19847E5E72DE9F04100
:1096D8000446164698460D46069F09F005FE2046A4
:1096E8002946C4F8E485C4F8E875C4F8EC65FFF7C2
:1096F800CDFBD4F8E8351B6898472046BDE8F04113
:1097080009F03ABE10B5D0F8E43504461B6898470E
:10971800D4F8E8359B689847002010BD08B5D0F804
:10972800E4355B689847002008BDFCF76BB900007A
:1097380007B500920A460146054805F078FE00285C
:109748000CBF6FF00300002003B05DF804FB00BFFE
:109758005C01002007B500920A460146054805F05D
:1097680010FE00280CBF6FF00300002003B05DF866
:1097780004FB00BF5C0100202DE9F04F2DED048BA8
:109788008DB00EF03FFEC74CC74800234FF0FF32A4
:1097980019460068FCF712FF0128064640F04E8281
:1097A800C24BC34DC349D3E900232846C4E9122359
:1097B80007F0AAFDBF49C04807F0BAFCBF4BB5F98E
:1097C80000709A6AB5F90410B5F9020017809A6A10
:1097D80050809A6A91809A6A03F62C4106328A422E
:1097E80038BF9A62194693F8242022BF83F825606F
:1097F8002C319962002A40F0028193F82530002B21
:1098080000F0FD8000260027AC4BCDE90667CDE9C6
:109818000467CDE90267CDE9006703F5406CB246FD
:10982800BB46B3F92C20B3F92EE0DDE9008910B26C
:1098380018EB00084FEAE0710FFA8EF049EB0109C6
:10984800C1171AEB000A4BEB010BB3F93010099161
:10985800DDE90201CDE90089BDF924804FEAE87904
:1098680010EB080041EB090180468946CDE90289E1
:10987800DDE90489C2FB8289CDE90489DDE906892D
:10988800099A0633CEFB8E899C45CDE90689C2FB31
:109898008267C6D1DDE9003203FB02F1A3FB032393
:1098A80003EB4103002A73F1000104DA40F2FF10D0
:1098B800002112184B41500A40EAC3505912DDE901
:1098C8000423121A63EB010319461046FBF7E4F967
:1098D8007A4B0AFB0BF1D860AAFB0A2303EB41037E
:1098E800002A73F1000109EE900A04DA40F2FF1031
:1098F800002112184B41500A40EAC3505912DDE9C1
:109908000623121A63EB010319461046FBF7C4F944
:109918006A4B1861DDE9023203FB02F1A3FB032362
:1099280003EB4103002A73F1000109EE100A04DA7F
:1099380040F2FF10002112184B414FEA522848EA22
:10994800C358B6EB08004FEA632967EB0901FBF738
:10995800A3F95A4E9FED5A8A706108EE900ADDE924
:109968000001FBF799F907EE900A67EE887A5946E5
:10997800C6ED067A5046FBF78FF907EE900A67EEB8
:10998800887ADDE90201C6ED077AFBF785F907EE6B
:10999800900A27EE888ADFED4B7A86ED088AF4EE86
:1099A800E79AF1EE10FA2AD5B4EEE79AF1EE10FA3A
:1099B80025D5F4EEE78AF1EE10FA20D5DFF82C81F0
:1099C800D8F8003003F57A77FBF7AAFE87420CD265
:1099D800FBF7A6FEB3693360F3697360336AB3605B
:1099E8000123C8F8000086F8243096F8243033B1F3
:1099F800072010F037FA344904200AF091F92F4B68
:109A0800324A93ED007A93ED015AD3ED025A82ED72
:109A1800007A82ED015AC2ED025A93F824302C4A9A
:109A2800254E1370DFED2B8A9FED2B8A2B4F002BD1
:109A38006AD02B4A1378002B66D1B6F90030294931
:109A480006EE103AB6F9023007EE903AF8EEE77AE9
:109A5800B6F90430B8EEC66A67EEA87A06EE903A10
:109A680026EE286A67EE887A26EE086AF8EEE66A35
:109A780067EEA77A66EEA86AE6EE067A1A4B66EEF5
:109A8800886AE6EEA67AF1EEE76AD3ED007A76EE1A
:109A9800A76AC3ED006A0B680133C82B0B6033D18A
:109AA8002AE000BF28B8002078B8002018B80020A5
:109AB80010B80020BCAA0020ACAA00208CAB002063
:109AC8000000003B00401C4664BF02087CAB00203D
